{
  "_format": "hh-sol-artifact-1",
  "contractName": "Betting",
  "sourceName": "contracts/Betting.sol",
  "abi": [
    {
      "inputs": [],
      "stateMutability": "nonpayable",
      "type": "constructor"
    },
    {
      "anonymous": false,
      "inputs": [
        {
          "indexed": false,
          "internalType": "uint256",
          "name": "timestamp",
          "type": "uint256"
        }
      ],
      "name": "EndBetting",
      "type": "event"
    },
    {
      "anonymous": false,
      "inputs": [
        {
          "indexed": false,
          "internalType": "address",
          "name": "addr",
          "type": "address"
        },
        {
          "indexed": false,
          "internalType": "uint256",
          "name": "amount",
          "type": "uint256"
        },
        {
          "indexed": false,
          "internalType": "string",
          "name": "upOrDown",
          "type": "string"
        }
      ],
      "name": "NewBetting",
      "type": "event"
    },
    {
      "anonymous": false,
      "inputs": [
        {
          "indexed": true,
          "internalType": "address",
          "name": "previousOwner",
          "type": "address"
        },
        {
          "indexed": true,
          "internalType": "address",
          "name": "newOwner",
          "type": "address"
        }
      ],
      "name": "OwnershipTransferred",
      "type": "event"
    },
    {
      "anonymous": false,
      "inputs": [
        {
          "indexed": false,
          "internalType": "bool",
          "name": "success",
          "type": "bool"
        },
        {
          "indexed": false,
          "internalType": "bytes",
          "name": "data",
          "type": "bytes"
        }
      ],
      "name": "Response",
      "type": "event"
    },
    {
      "inputs": [
        {
          "internalType": "string",
          "name": "_upOrDown",
          "type": "string"
        }
      ],
      "name": "bet",
      "outputs": [],
      "stateMutability": "payable",
      "type": "function"
    },
    {
      "inputs": [
        {
          "internalType": "uint256",
          "name": "",
          "type": "uint256"
        }
      ],
      "name": "bets",
      "outputs": [
        {
          "internalType": "address",
          "name": "addr",
          "type": "address"
        },
        {
          "internalType": "uint256",
          "name": "amount",
          "type": "uint256"
        },
        {
          "internalType": "string",
          "name": "upOrDown",
          "type": "string"
        }
      ],
      "stateMutability": "view",
      "type": "function"
    },
    {
      "inputs": [],
      "name": "coinPrice",
      "outputs": [
        {
          "internalType": "uint256",
          "name": "",
          "type": "uint256"
        }
      ],
      "stateMutability": "view",
      "type": "function"
    },
    {
      "inputs": [],
      "name": "endBetting",
      "outputs": [],
      "stateMutability": "nonpayable",
      "type": "function"
    },
    {
      "inputs": [],
      "name": "getBalance",
      "outputs": [
        {
          "internalType": "uint256",
          "name": "",
          "type": "uint256"
        }
      ],
      "stateMutability": "view",
      "type": "function"
    },
    {
      "inputs": [],
      "name": "getEachBet",
      "outputs": [
        {
          "internalType": "uint256",
          "name": "",
          "type": "uint256"
        },
        {
          "internalType": "uint256",
          "name": "",
          "type": "uint256"
        },
        {
          "internalType": "uint256",
          "name": "",
          "type": "uint256"
        }
      ],
      "stateMutability": "view",
      "type": "function"
    },
    {
      "inputs": [],
      "name": "getStatus",
      "outputs": [
        {
          "internalType": "bool",
          "name": "",
          "type": "bool"
        }
      ],
      "stateMutability": "view",
      "type": "function"
    },
    {
      "inputs": [
        {
          "internalType": "uint256",
          "name": "_num",
          "type": "uint256"
        }
      ],
      "name": "getTotalbet",
      "outputs": [
        {
          "internalType": "uint256",
          "name": "",
          "type": "uint256"
        }
      ],
      "stateMutability": "view",
      "type": "function"
    },
    {
      "inputs": [],
      "name": "limitBetting",
      "outputs": [
        {
          "internalType": "bool",
          "name": "",
          "type": "bool"
        }
      ],
      "stateMutability": "view",
      "type": "function"
    },
    {
      "inputs": [],
      "name": "owner",
      "outputs": [
        {
          "internalType": "address",
          "name": "",
          "type": "address"
        }
      ],
      "stateMutability": "view",
      "type": "function"
    },
    {
      "inputs": [],
      "name": "renounceOwnership",
      "outputs": [],
      "stateMutability": "nonpayable",
      "type": "function"
    },
    {
      "inputs": [
        {
          "internalType": "uint256",
          "name": "_endCoinPrice",
          "type": "uint256"
        }
      ],
      "name": "setResult",
      "outputs": [],
      "stateMutability": "nonpayable",
      "type": "function"
    },
    {
      "inputs": [],
      "name": "startBetting",
      "outputs": [],
      "stateMutability": "nonpayable",
      "type": "function"
    },
    {
      "inputs": [],
      "name": "totalMoney",
      "outputs": [
        {
          "internalType": "uint256",
          "name": "",
          "type": "uint256"
        }
      ],
      "stateMutability": "view",
      "type": "function"
    },
    {
      "inputs": [
        {
          "internalType": "address",
          "name": "newOwner",
          "type": "address"
        }
      ],
      "name": "transferOwnership",
      "outputs": [],
      "stateMutability": "nonpayable",
      "type": "function"
    },
    {
      "inputs": [
        {
          "internalType": "uint256",
          "name": "",
          "type": "uint256"
        }
      ],
      "name": "upOrDowns",
      "outputs": [
        {
          "internalType": "string",
          "name": "name",
          "type": "string"
        },
        {
          "internalType": "uint256",
          "name": "totalBet",
          "type": "uint256"
        }
      ],
      "stateMutability": "view",
      "type": "function"
    }
  ],
  "bytecode": "0x608060405260006001556000600260006101000a81548160ff02191690831515021790555060006003553480156200003657600080fd5b50620000576200004b6200022b60201b60201c565b6200023360201b60201c565b600560405180604001604052806040518060400160405280600281526020017f55700000000000000000000000000000000000000000000000000000000000008152508152602001600081525090806001815401808255809150506001900390600052602060002090600202016000909190919091506000820151816000019081620000e4919062000571565b50602082015181600101555050600560405180604001604052806040518060400160405280600481526020017f446f776e0000000000000000000000000000000000000000000000000000000081525081526020016000815250908060018154018082558091505060019003906000526020600020906002020160009091909190915060008201518160000190816200017e919062000571565b50602082015181600101555050600560405180604001604052806040518060400160405280600481526020017f53616d6500000000000000000000000000000000000000000000000000000000815250815260200160008152509080600181540180825580915050600190039060005260206000209060020201600090919091909150600082015181600001908162000218919062000571565b5060208201518160010155505062000658565b600033905090565b60008060009054906101000a900473ffffffffffffffffffffffffffffffffffffffff169050816000806101000a81548173ffffffffffffffffffffffffffffffffffffffff021916908373ffffffffffffffffffffffffffffffffffffffff1602179055508173ffffffffffffffffffffffffffffffffffffffff168173ffffffffffffffffffffffffffffffffffffffff167f8be0079c531659141344cd1fd0a4f28419497f9722a3daafe3b4186f6b6457e060405160405180910390a35050565b600081519050919050565b7f4e487b7100000000000000000000000000000000000000000000000000000000600052604160045260246000fd5b7f4e487b7100000000000000000000000000000000000000000000000000000000600052602260045260246000fd5b600060028204905060018216806200037957607f821691505b6020821081036200038f576200038e62000331565b5b50919050565b60008190508160005260206000209050919050565b60006020601f8301049050919050565b600082821b905092915050565b600060088302620003f97fffffffffffffffffffffffffffffffffffffffffffffffffffffffffffffffff82620003ba565b620004058683620003ba565b95508019841693508086168417925050509392505050565b6000819050919050565b6000819050919050565b6000620004526200044c62000446846200041d565b62000427565b6200041d565b9050919050565b6000819050919050565b6200046e8362000431565b620004866200047d8262000459565b848454620003c7565b825550505050565b600090565b6200049d6200048e565b620004aa81848462000463565b505050565b5b81811015620004d257620004c660008262000493565b600181019050620004b0565b5050565b601f8211156200052157620004eb8162000395565b620004f684620003aa565b8101602085101562000506578190505b6200051e6200051585620003aa565b830182620004af565b50505b505050565b600082821c905092915050565b6000620005466000198460080262000526565b1980831691505092915050565b600062000561838362000533565b9150826002028217905092915050565b6200057c82620002f7565b67ffffffffffffffff81111562000598576200059762000302565b5b620005a4825462000360565b620005b1828285620004d6565b600060209050601f831160018114620005e95760008415620005d4578287015190505b620005e0858262000553565b86555062000650565b601f198416620005f98662000395565b60005b828110156200062357848901518255600182019150602085019450602081019050620005fc565b868310156200064357848901516200063f601f89168262000533565b8355505b6001600288020188555050505b505050505050565b61296f80620006686000396000f3fe6080604052600436106100f35760003560e01c806378adf8ba1161008a5780638da5cb5b116100595780638da5cb5b146102fe578063ad0f291614610329578063d187162f14610354578063f2fde38b1461036b576100f3565b806378adf8ba14610268578063812448a514610293578063826f57a1146102bc57806387da21e3146102d3576100f3565b80634e69d560116100c65780634e69d560146101cd5780635b4fed94146101f8578063715018a614610235578063740305311461024c576100f3565b806312065fe0146100f857806322af00fa146101235780632af02df014610162578063385936461461018f575b600080fd5b34801561010457600080fd5b5061010d610394565b60405161011a9190611ae1565b60405180910390f35b34801561012f57600080fd5b5061014a60048036038101906101459190611b3c565b61039c565b60405161015993929190611c3a565b60405180910390f35b34801561016e57600080fd5b5061017761047e565b60405161018693929190611c78565b60405180910390f35b34801561019b57600080fd5b506101b660048036038101906101b19190611b3c565b610503565b6040516101c4929190611caf565b60405180910390f35b3480156101d957600080fd5b506101e26105bf565b6040516101ef9190611cfa565b60405180910390f35b34801561020457600080fd5b5061021f600480360381019061021a9190611b3c565b6105d6565b60405161022c9190611ae1565b60405180910390f35b34801561024157600080fd5b5061024a610605565b005b61026660048036038101906102619190611e4a565b610619565b005b34801561027457600080fd5b5061027d610bc2565b60405161028a9190611cfa565b60405180910390f35b34801561029f57600080fd5b506102ba60048036038101906102b59190611b3c565b610bd5565b005b3480156102c857600080fd5b506102d16117d0565b005b3480156102df57600080fd5b506102e861184b565b6040516102f59190611ae1565b60405180910390f35b34801561030a57600080fd5b50610313611851565b6040516103209190611e93565b60405180910390f35b34801561033557600080fd5b5061033e61187a565b60405161034b9190611ae1565b60405180910390f35b34801561036057600080fd5b50610369611880565b005b34801561037757600080fd5b50610392600480360381019061038d9190611eda565b6118fb565b005b600047905090565b600481815481106103ac57600080fd5b90600052602060002090600302016000915090508060000160009054906101000a900473ffffffffffffffffffffffffffffffffffffffff16908060010154908060020180546103fb90611f36565b80601f016020809104026020016040519081016040528092919081815260200182805461042790611f36565b80156104745780601f1061044957610100808354040283529160200191610474565b820191906000526020600020905b81548152906001019060200180831161045757829003601f168201915b5050505050905083565b6000806000600560008154811061049857610497611f67565b5b90600052602060002090600202016001015460056001815481106104bf576104be611f67565b5b90600052602060002090600202016001015460056002815481106104e6576104e5611f67565b5b906000526020600020906002020160010154925092509250909192565b6005818154811061051357600080fd5b906000526020600020906002020160009150905080600001805461053690611f36565b80601f016020809104026020016040519081016040528092919081815260200182805461056290611f36565b80156105af5780601f10610584576101008083540402835291602001916105af565b820191906000526020600020905b81548152906001019060200180831161059257829003601f168201915b5050505050908060010154905082565b6000600260009054906101000a900460ff16905090565b6000600582815481106105ec576105eb611f67565b5b9060005260206000209060020201600101549050919050565b61060d61197e565b61061760006119fc565b565b6040518060400160405280600281526020017f557000000000000000000000000000000000000000000000000000000000000081525080519060200120818051906020012014806106ac57506040518060400160405280600481526020017f446f776e00000000000000000000000000000000000000000000000000000000815250805190602001208180519060200120145b806106f957506040518060400160405280600481526020017f53616d6500000000000000000000000000000000000000000000000000000000815250805190602001208180519060200120145b610738576040517f08c379a000000000000000000000000000000000000000000000000000000000815260040161072f90611fe2565b60405180910390fd5b60011515600260009054906101000a900460ff1615151461078e576040517f08c379a00000000000000000000000000000000000000000000000000000000081526004016107859061204e565b60405180910390fd5b60001515600660003373ffffffffffffffffffffffffffffffffffffffff1673ffffffffffffffffffffffffffffffffffffffff16815260200190815260200160002060009054906101000a900460ff16151514610821576040517f08c379a0000000000000000000000000000000000000000000000000000000008152600401610818906120ba565b60405180910390fd5b662386f26fc1000034101561086b576040517f08c379a000000000000000000000000000000000000000000000000000000000815260040161086290612126565b60405180910390fd5b34678ac7230489e8000010156108b6576040517f08c379a00000000000000000000000000000000000000000000000000000000081526004016108ad90612192565b60405180910390fd5b600460405180606001604052803373ffffffffffffffffffffffffffffffffffffffff16815260200134815260200183815250908060018154018082558091505060019003906000526020600020906003020160009091909190915060008201518160000160006101000a81548173ffffffffffffffffffffffffffffffffffffffff021916908373ffffffffffffffffffffffffffffffffffffffff160217905550602082015181600101556040820151816002019081610978919061235e565b5050506001600660003373ffffffffffffffffffffffffffffffffffffffff1673ffffffffffffffffffffffffffffffffffffffff16815260200190815260200160002060006101000a81548160ff0219169083151502179055506040518060400160405280600281526020017f557000000000000000000000000000000000000000000000000000000000000081525080519060200120818051906020012003610a5b57346005600081548110610a3357610a32611f67565b5b90600052602060002090600202016001016000828254610a53919061245f565b925050819055505b6040518060400160405280600481526020017f446f776e0000000000000000000000000000000000000000000000000000000081525080519060200120818051906020012003610ae357346005600181548110610abb57610aba611f67565b5b90600052602060002090600202016001016000828254610adb919061245f565b925050819055505b6040518060400160405280600481526020017f53616d650000000000000000000000000000000000000000000000000000000081525080519060200120818051906020012003610b6b57346005600281548110610b4357610b42611f67565b5b90600052602060002090600202016001016000828254610b63919061245f565b925050819055505b3460016000828254610b7d919061245f565b925050819055507f7f6c216a9cedd1cbd4846d6636bf9797dcdcfd8571818c18836d8b0c2d635b4a333483604051610bb793929190611c3a565b60405180910390a150565b600260009054906101000a900460ff1681565b610bdd61197e565b6000600354821115610f975760005b600480549050811015610f91576040518060400160405280600281526020017f55700000000000000000000000000000000000000000000000000000000000008152508051906020012060048281548110610c4a57610c49611f67565b5b9060005260206000209060030201600201604051610c689190612536565b604051809103902003610ee1576127106005600081548110610c8d57610c8c611f67565b5b9060005260206000209060020201600101546123286005600281548110610cb757610cb6611f67565b5b9060005260206000209060020201600101546005600181548110610cde57610cdd611f67565b5b906000526020600020906002020160010154610cfa919061245f565b610d04919061254d565b610d0e91906125be565b60048381548110610d2257610d21611f67565b5b906000526020600020906003020160010154610d3e919061254d565b61232860048481548110610d5557610d54611f67565b5b906000526020600020906003020160010154610d71919061254d565b610d7b919061245f565b610d8591906125be565b915060008060048381548110610d9e57610d9d611f67565b5b906000526020600020906003020160000160009054906101000a900473ffffffffffffffffffffffffffffffffffffffff1673ffffffffffffffffffffffffffffffffffffffff1684604051610df390612615565b60006040518083038185875af1925050503d8060008114610e30576040519150601f19603f3d011682016040523d82523d6000602084013e610e35565b606091505b5091509150600060048481548110610e5057610e4f611f67565b5b9060005260206000209060030201600101819055507f13848c3e38f8886f3f5d2ad9dff80d8092c2bbb8efd5b887a99c2c6cfc09ac2a8282604051610e9692919061267f565b60405180910390a181610ede576040517f08c379a0000000000000000000000000000000000000000000000000000000008152600401610ed5906126fb565b60405180910390fd5b50505b60006006600060048481548110610efb57610efa611f67565b5b906000526020600020906003020160000160009054906101000a900473ffffffffffffffffffffffffffffffffffffffff1673ffffffffffffffffffffffffffffffffffffffff1673ffffffffffffffffffffffffffffffffffffffff16815260200190815260200160002060006101000a81548160ff0219169083151502179055508080610f899061271b565b915050610bec565b506116fa565b60035482101561134f5760005b600480549050811015611349576040518060400160405280600481526020017f446f776e00000000000000000000000000000000000000000000000000000000815250805190602001206004828154811061100257611001611f67565b5b90600052602060002090600302016002016040516110209190612536565b60405180910390200361129957612710600560018154811061104557611044611f67565b5b906000526020600020906002020160010154612328600560028154811061106f5761106e611f67565b5b906000526020600020906002020160010154600560008154811061109657611095611f67565b5b9060005260206000209060020201600101546110b2919061245f565b6110bc919061254d565b6110c691906125be565b600483815481106110da576110d9611f67565b5b9060005260206000209060030201600101546110f6919061254d565b6123286004848154811061110d5761110c611f67565b5b906000526020600020906003020160010154611129919061254d565b611133919061245f565b61113d91906125be565b91506000806004838154811061115657611155611f67565b5b906000526020600020906003020160000160009054906101000a900473ffffffffffffffffffffffffffffffffffffffff1673ffffffffffffffffffffffffffffffffffffffff16846040516111ab90612615565b60006040518083038185875af1925050503d80600081146111e8576040519150601f19603f3d011682016040523d82523d6000602084013e6111ed565b606091505b509150915060006004848154811061120857611207611f67565b5b9060005260206000209060030201600101819055507f13848c3e38f8886f3f5d2ad9dff80d8092c2bbb8efd5b887a99c2c6cfc09ac2a828260405161124e92919061267f565b60405180910390a181611296576040517f08c379a000000000000000000000000000000000000000000000000000000000815260040161128d906126fb565b60405180910390fd5b50505b600060066000600484815481106112b3576112b2611f67565b5b906000526020600020906003020160000160009054906101000a900473ffffffffffffffffffffffffffffffffffffffff1673ffffffffffffffffffffffffffffffffffffffff1673ffffffffffffffffffffffffffffffffffffffff16815260200190815260200160002060006101000a81548160ff02191690831515021790555080806113419061271b565b915050610fa4565b506116f9565b60005b6004805490508110156116f7576040518060400160405280600481526020017f53616d650000000000000000000000000000000000000000000000000000000081525080519060200120600482815481106113b0576113af611f67565b5b90600052602060002090600302016002016040516113ce9190612536565b6040518091039020036116475761271060056002815481106113f3576113f2611f67565b5b906000526020600020906002020160010154612328600560018154811061141d5761141c611f67565b5b906000526020600020906002020160010154600560008154811061144457611443611f67565b5b906000526020600020906002020160010154611460919061245f565b61146a919061254d565b61147491906125be565b6004838154811061148857611487611f67565b5b9060005260206000209060030201600101546114a4919061254d565b612328600484815481106114bb576114ba611f67565b5b9060005260206000209060030201600101546114d7919061254d565b6114e1919061245f565b6114eb91906125be565b91506000806004838154811061150457611503611f67565b5b906000526020600020906003020160000160009054906101000a900473ffffffffffffffffffffffffffffffffffffffff1673ffffffffffffffffffffffffffffffffffffffff168460405161155990612615565b60006040518083038185875af1925050503d8060008114611596576040519150601f19603f3d011682016040523d82523d6000602084013e61159b565b606091505b50915091506000600484815481106115b6576115b5611f67565b5b9060005260206000209060030201600101819055507f13848c3e38f8886f3f5d2ad9dff80d8092c2bbb8efd5b887a99c2c6cfc09ac2a82826040516115fc92919061267f565b60405180910390a181611644576040517f08c379a000000000000000000000000000000000000000000000000000000000815260040161163b906126fb565b60405180910390fd5b50505b6000600660006004848154811061166157611660611f67565b5b906000526020600020906003020160000160009054906101000a900473ffffffffffffffffffffffffffffffffffffffff1673ffffffffffffffffffffffffffffffffffffffff1673ffffffffffffffffffffffffffffffffffffffff16815260200190815260200160002060006101000a81548160ff02191690831515021790555080806116ef9061271b565b915050611352565b505b5b60006001819055506000600560008154811061171957611718611f67565b5b9060005260206000209060020201600101819055506000600560018154811061174557611744611f67565b5b9060005260206000209060020201600101819055506000600560028154811061177157611770611f67565b5b90600052602060002090600202016001018190555061178e611880565b816003819055507ff639a615c51a4756c499beb86d6776afa4ea1e988dafe9e45731631a2b1e300c426040516117c49190611ae1565b60405180910390a15050565b6117d861197e565b60011515600260009054906101000a900460ff1615151461182e576040517f08c379a0000000000000000000000000000000000000000000000000000000008152600401611825906127af565b60405180910390fd5b6000600260006101000a81548160ff021916908315150217905550565b60015481565b60008060009054906101000a900473ffffffffffffffffffffffffffffffffffffffff16905090565b60035481565b61188861197e565b60001515600260009054906101000a900460ff161515146118de576040517f08c379a00000000000000000000000000000000000000000000000000000000081526004016118d59061281b565b60405180910390fd5b6001600260006101000a81548160ff021916908315150217905550565b61190361197e565b600073ffffffffffffffffffffffffffffffffffffffff168173ffffffffffffffffffffffffffffffffffffffff1603611972576040517f08c379a0000000000000000000000000000000000000000000000000000000008152600401611969906128ad565b60405180910390fd5b61197b816119fc565b50565b611986611ac0565b73ffffffffffffffffffffffffffffffffffffffff166119a4611851565b73ffffffffffffffffffffffffffffffffffffffff16146119fa576040517f08c379a00000000000000000000000000000000000000000000000000000000081526004016119f190612919565b60405180910390fd5b565b60008060009054906101000a900473ffffffffffffffffffffffffffffffffffffffff169050816000806101000a81548173ffffffffffffffffffffffffffffffffffffffff021916908373ffffffffffffffffffffffffffffffffffffffff1602179055508173ffffffffffffffffffffffffffffffffffffffff168173ffffffffffffffffffffffffffffffffffffffff167f8be0079c531659141344cd1fd0a4f28419497f9722a3daafe3b4186f6b6457e060405160405180910390a35050565b600033905090565b6000819050919050565b611adb81611ac8565b82525050565b6000602082019050611af66000830184611ad2565b92915050565b6000604051905090565b600080fd5b600080fd5b611b1981611ac8565b8114611b2457600080fd5b50565b600081359050611b3681611b10565b92915050565b600060208284031215611b5257611b51611b06565b5b6000611b6084828501611b27565b91505092915050565b600073ffffffffffffffffffffffffffffffffffffffff82169050919050565b6000611b9482611b69565b9050919050565b611ba481611b89565b82525050565b600081519050919050565b600082825260208201905092915050565b60005b83811015611be4578082015181840152602081019050611bc9565b60008484015250505050565b6000601f19601f8301169050919050565b6000611c0c82611baa565b611c168185611bb5565b9350611c26818560208601611bc6565b611c2f81611bf0565b840191505092915050565b6000606082019050611c4f6000830186611b9b565b611c5c6020830185611ad2565b8181036040830152611c6e8184611c01565b9050949350505050565b6000606082019050611c8d6000830186611ad2565b611c9a6020830185611ad2565b611ca76040830184611ad2565b949350505050565b60006040820190508181036000830152611cc98185611c01565b9050611cd86020830184611ad2565b9392505050565b60008115159050919050565b611cf481611cdf565b82525050565b6000602082019050611d0f6000830184611ceb565b92915050565b600080fd5b600080fd5b7f4e487b7100000000000000000000000000000000000000000000000000000000600052604160045260246000fd5b611d5782611bf0565b810181811067ffffffffffffffff82111715611d7657611d75611d1f565b5b80604052505050565b6000611d89611afc565b9050611d958282611d4e565b919050565b600067ffffffffffffffff821115611db557611db4611d1f565b5b611dbe82611bf0565b9050602081019050919050565b82818337600083830152505050565b6000611ded611de884611d9a565b611d7f565b905082815260208101848484011115611e0957611e08611d1a565b5b611e14848285611dcb565b509392505050565b600082601f830112611e3157611e30611d15565b5b8135611e41848260208601611dda565b91505092915050565b600060208284031215611e6057611e5f611b06565b5b600082013567ffffffffffffffff811115611e7e57611e7d611b0b565b5b611e8a84828501611e1c565b91505092915050565b6000602082019050611ea86000830184611b9b565b92915050565b611eb781611b89565b8114611ec257600080fd5b50565b600081359050611ed481611eae565b92915050565b600060208284031215611ef057611eef611b06565b5b6000611efe84828501611ec5565b91505092915050565b7f4e487b7100000000000000000000000000000000000000000000000000000000600052602260045260246000fd5b60006002820490506001821680611f4e57607f821691505b602082108103611f6157611f60611f07565b5b50919050565b7f4e487b7100000000000000000000000000000000000000000000000000000000600052603260045260246000fd5b7f4f6e6c652062657420746f205570206f7220446f776e206f722053616d650000600082015250565b6000611fcc601e83611bb5565b9150611fd782611f96565b602082019050919050565b60006020820190508181036000830152611ffb81611fbf565b9050919050565b7f7761697420666f7220746865206e6578742067616d6500000000000000000000600082015250565b6000612038601683611bb5565b915061204382612002565b602082019050919050565b600060208201905081810360008301526120678161202b565b9050919050565b7f4f6e6c792062657474696e67206f6e63652e0000000000000000000000000000600082015250565b60006120a4601283611bb5565b91506120af8261206e565b602082019050919050565b600060208201905081810360008301526120d381612097565b9050919050565b7f4d696e696d756d2062657474696e6720616d6f756e7420697320302e30312e00600082015250565b6000612110601f83611bb5565b915061211b826120da565b602082019050919050565b6000602082019050818103600083015261213f81612103565b9050919050565b7f4d6178696d756d2062657474696e6720616d6f756e742069732031302e000000600082015250565b600061217c601d83611bb5565b915061218782612146565b602082019050919050565b600060208201905081810360008301526121ab8161216f565b9050919050565b60008190508160005260206000209050919050565b60006020601f8301049050919050565b600082821b905092915050565b6000600883026122147fffffffffffffffffffffffffffffffffffffffffffffffffffffffffffffffff826121d7565b61221e86836121d7565b95508019841693508086168417925050509392505050565b6000819050919050565b600061225b61225661225184611ac8565b612236565b611ac8565b9050919050565b6000819050919050565b61227583612240565b61228961228182612262565b8484546121e4565b825550505050565b600090565b61229e612291565b6122a981848461226c565b505050565b5b818110156122cd576122c2600082612296565b6001810190506122af565b5050565b601f821115612312576122e3816121b2565b6122ec846121c7565b810160208510156122fb578190505b61230f612307856121c7565b8301826122ae565b50505b505050565b600082821c905092915050565b600061233560001984600802612317565b1980831691505092915050565b600061234e8383612324565b9150826002028217905092915050565b61236782611baa565b67ffffffffffffffff8111156123805761237f611d1f565b5b61238a8254611f36565b6123958282856122d1565b600060209050601f8311600181146123c857600084156123b6578287015190505b6123c08582612342565b865550612428565b601f1984166123d6866121b2565b60005b828110156123fe578489015182556001820191506020850194506020810190506123d9565b8683101561241b5784890151612417601f891682612324565b8355505b6001600288020188555050505b505050505050565b7f4e487b7100000000000000000000000000000000000000000000000000000000600052601160045260246000fd5b600061246a82611ac8565b915061247583611ac8565b925082820190508082111561248d5761248c612430565b5b92915050565b600081905092915050565b60008190508160005260206000209050919050565b600081546124c081611f36565b6124ca8186612493565b945060018216600081146124e557600181146124fa5761252d565b60ff198316865281151582028601935061252d565b6125038561249e565b60005b8381101561252557815481890152600182019150602081019050612506565b838801955050505b50505092915050565b600061254282846124b3565b915081905092915050565b600061255882611ac8565b915061256383611ac8565b925082820261257181611ac8565b9150828204841483151761258857612587612430565b5b5092915050565b7f4e487b7100000000000000000000000000000000000000000000000000000000600052601260045260246000fd5b60006125c982611ac8565b91506125d483611ac8565b9250826125e4576125e361258f565b5b828204905092915050565b50565b60006125ff600083612493565b915061260a826125ef565b600082019050919050565b6000612620826125f2565b9150819050919050565b600081519050919050565b600082825260208201905092915050565b60006126518261262a565b61265b8185612635565b935061266b818560208601611bc6565b61267481611bf0565b840191505092915050565b60006040820190506126946000830185611ceb565b81810360208301526126a68184612646565b90509392505050565b7f4661696c656420746f2073656e64204574686572000000000000000000000000600082015250565b60006126e5601483611bb5565b91506126f0826126af565b602082019050919050565b60006020820190508181036000830152612714816126d8565b9050919050565b600061272682611ac8565b91507fffffffffffffffffffffffffffffffffffffffffffffffffffffffffffffffff820361275857612757612430565b5b600182019050919050565b7f416c726561647920656e64000000000000000000000000000000000000000000600082015250565b6000612799600b83611bb5565b91506127a482612763565b602082019050919050565b600060208201905081810360008301526127c88161278c565b9050919050565b7f416c726561647920737461727465640000000000000000000000000000000000600082015250565b6000612805600f83611bb5565b9150612810826127cf565b602082019050919050565b60006020820190508181036000830152612834816127f8565b9050919050565b7f4f776e61626c653a206e6577206f776e657220697320746865207a65726f206160008201527f6464726573730000000000000000000000000000000000000000000000000000602082015250565b6000612897602683611bb5565b91506128a28261283b565b604082019050919050565b600060208201905081810360008301526128c68161288a565b9050919050565b7f4f776e61626c653a2063616c6c6572206973206e6f7420746865206f776e6572600082015250565b6000612903602083611bb5565b915061290e826128cd565b602082019050919050565b60006020820190508181036000830152612932816128f6565b905091905056fea26469706673582212201740697642cc6e445ab68641eecb4655952c612b02cb545568d81a6201ca519264736f6c63430008110033",
  "linkReferences": {},
  "deployedLinkReferences": {}
}